{
  "_format": "hh-sol-artifact-1",
  "contractName": "NftContract",
  "sourceName": "contracts/NftContract.sol",
  "abi": [
    {
      "inputs": [
        {
          "internalType": "string",
          "name": "uri_",
          "type": "string"
        }
      ],
      "stateMutability": "nonpayable",
      "type": "constructor"
    },
    {
      "anonymous": false,
      "inputs": [
        {
          "indexed": true,
          "internalType": "address",
          "name": "account",
          "type": "address"
        },
        {
          "indexed": true,
          "internalType": "address",
          "name": "operator",
          "type": "address"
        },
        {
          "indexed": false,
          "internalType": "bool",
          "name": "approved",
          "type": "bool"
        }
      ],
      "name": "ApprovalForAll",
      "type": "event"
    },
    {
      "anonymous": false,
      "inputs": [
        {
          "indexed": true,
          "internalType": "address",
          "name": "previousOwner",
          "type": "address"
        },
        {
          "indexed": true,
          "internalType": "address",
          "name": "newOwner",
          "type": "address"
        }
      ],
      "name": "OwnershipTransferred",
      "type": "event"
    },
    {
      "anonymous": false,
      "inputs": [
        {
          "indexed": true,
          "internalType": "address",
          "name": "operator",
          "type": "address"
        },
        {
          "indexed": true,
          "internalType": "address",
          "name": "from",
          "type": "address"
        },
        {
          "indexed": true,
          "internalType": "address",
          "name": "to",
          "type": "address"
        },
        {
          "indexed": false,
          "internalType": "uint256[]",
          "name": "ids",
          "type": "uint256[]"
        },
        {
          "indexed": false,
          "internalType": "uint256[]",
          "name": "values",
          "type": "uint256[]"
        }
      ],
      "name": "TransferBatch",
      "type": "event"
    },
    {
      "anonymous": false,
      "inputs": [
        {
          "indexed": true,
          "internalType": "address",
          "name": "operator",
          "type": "address"
        },
        {
          "indexed": true,
          "internalType": "address",
          "name": "from",
          "type": "address"
        },
        {
          "indexed": true,
          "internalType": "address",
          "name": "to",
          "type": "address"
        },
        {
          "indexed": false,
          "internalType": "uint256",
          "name": "id",
          "type": "uint256"
        },
        {
          "indexed": false,
          "internalType": "uint256",
          "name": "value",
          "type": "uint256"
        }
      ],
      "name": "TransferSingle",
      "type": "event"
    },
    {
      "anonymous": false,
      "inputs": [
        {
          "indexed": false,
          "internalType": "string",
          "name": "value",
          "type": "string"
        },
        {
          "indexed": true,
          "internalType": "uint256",
          "name": "id",
          "type": "uint256"
        }
      ],
      "name": "URI",
      "type": "event"
    },
    {
      "inputs": [
        {
          "internalType": "address",
          "name": "account",
          "type": "address"
        },
        {
          "internalType": "uint256",
          "name": "id",
          "type": "uint256"
        }
      ],
      "name": "balanceOf",
      "outputs": [
        {
          "internalType": "uint256",
          "name": "",
          "type": "uint256"
        }
      ],
      "stateMutability": "view",
      "type": "function"
    },
    {
      "inputs": [
        {
          "internalType": "address[]",
          "name": "accounts",
          "type": "address[]"
        },
        {
          "internalType": "uint256[]",
          "name": "ids",
          "type": "uint256[]"
        }
      ],
      "name": "balanceOfBatch",
      "outputs": [
        {
          "internalType": "uint256[]",
          "name": "",
          "type": "uint256[]"
        }
      ],
      "stateMutability": "view",
      "type": "function"
    },
    {
      "inputs": [
        {
          "internalType": "address",
          "name": "account",
          "type": "address"
        },
        {
          "internalType": "address",
          "name": "operator",
          "type": "address"
        }
      ],
      "name": "isApprovedForAll",
      "outputs": [
        {
          "internalType": "bool",
          "name": "",
          "type": "bool"
        }
      ],
      "stateMutability": "view",
      "type": "function"
    },
    {
      "inputs": [
        {
          "internalType": "uint256",
          "name": "amount",
          "type": "uint256"
        }
      ],
      "name": "mint",
      "outputs": [],
      "stateMutability": "nonpayable",
      "type": "function"
    },
    {
      "inputs": [
        {
          "internalType": "uint256[]",
          "name": "ids",
          "type": "uint256[]"
        },
        {
          "internalType": "uint256[]",
          "name": "amounts",
          "type": "uint256[]"
        },
        {
          "internalType": "bytes",
          "name": "data",
          "type": "bytes"
        }
      ],
      "name": "mintBatch",
      "outputs": [],
      "stateMutability": "nonpayable",
      "type": "function"
    },
    {
      "inputs": [],
      "name": "owner",
      "outputs": [
        {
          "internalType": "address",
          "name": "",
          "type": "address"
        }
      ],
      "stateMutability": "view",
      "type": "function"
    },
    {
      "inputs": [],
      "name": "renounceOwnership",
      "outputs": [],
      "stateMutability": "nonpayable",
      "type": "function"
    },
    {
      "inputs": [
        {
          "internalType": "address",
          "name": "from",
          "type": "address"
        },
        {
          "internalType": "address",
          "name": "to",
          "type": "address"
        },
        {
          "internalType": "uint256[]",
          "name": "ids",
          "type": "uint256[]"
        },
        {
          "internalType": "uint256[]",
          "name": "amounts",
          "type": "uint256[]"
        },
        {
          "internalType": "bytes",
          "name": "data",
          "type": "bytes"
        }
      ],
      "name": "safeBatchTransferFrom",
      "outputs": [],
      "stateMutability": "nonpayable",
      "type": "function"
    },
    {
      "inputs": [
        {
          "internalType": "address",
          "name": "from",
          "type": "address"
        },
        {
          "internalType": "address",
          "name": "to",
          "type": "address"
        },
        {
          "internalType": "uint256",
          "name": "id",
          "type": "uint256"
        },
        {
          "internalType": "uint256",
          "name": "amount",
          "type": "uint256"
        },
        {
          "internalType": "bytes",
          "name": "data",
          "type": "bytes"
        }
      ],
      "name": "safeTransferFrom",
      "outputs": [],
      "stateMutability": "nonpayable",
      "type": "function"
    },
    {
      "inputs": [
        {
          "internalType": "address",
          "name": "operator",
          "type": "address"
        },
        {
          "internalType": "bool",
          "name": "approved",
          "type": "bool"
        }
      ],
      "name": "setApprovalForAll",
      "outputs": [],
      "stateMutability": "nonpayable",
      "type": "function"
    },
    {
      "inputs": [
        {
          "internalType": "bytes4",
          "name": "interfaceId",
          "type": "bytes4"
        }
      ],
      "name": "supportsInterface",
      "outputs": [
        {
          "internalType": "bool",
          "name": "",
          "type": "bool"
        }
      ],
      "stateMutability": "view",
      "type": "function"
    },
    {
      "inputs": [
        {
          "internalType": "address",
          "name": "newOwner",
          "type": "address"
        }
      ],
      "name": "transferOwnership",
      "outputs": [],
      "stateMutability": "nonpayable",
      "type": "function"
    },
    {
      "inputs": [
        {
          "internalType": "uint256",
          "name": "",
          "type": "uint256"
        }
      ],
      "name": "uri",
      "outputs": [
        {
          "internalType": "string",
          "name": "",
          "type": "string"
        }
      ],
      "stateMutability": "view",
      "type": "function"
    }
  ],
  "bytecode": "0x60806040523480156200001157600080fd5b5060405162003341380380620033418339818101604052810190620000379190620003a8565b8062000049816200007160201b60201c565b506200006a6200005e6200008d60201b60201c565b6200009560201b60201c565b506200045e565b8060029080519060200190620000899291906200015b565b5050565b600033905090565b6000600360009054906101000a900473ffffffffffffffffffffffffffffffffffffffff16905081600360006101000a81548173ffffffffffffffffffffffffffffffffffffffff021916908373ffffffffffffffffffffffffffffffffffffffff1602179055508173ffffffffffffffffffffffffffffffffffffffff168173ffffffffffffffffffffffffffffffffffffffff167f8be0079c531659141344cd1fd0a4f28419497f9722a3daafe3b4186f6b6457e060405160405180910390a35050565b828054620001699062000428565b90600052602060002090601f0160209004810192826200018d5760008555620001d9565b82601f10620001a857805160ff1916838001178555620001d9565b82800160010185558215620001d9579182015b82811115620001d8578251825591602001919060010190620001bb565b5b509050620001e89190620001ec565b5090565b5b8082111562000207576000816000905550600101620001ed565b5090565b6000604051905090565b600080fd5b600080fd5b600080fd5b600080fd5b6000601f19601f8301169050919050565b7f4e487b7100000000000000000000000000000000000000000000000000000000600052604160045260246000fd5b620002748262000229565b810181811067ffffffffffffffff821117156200029657620002956200023a565b5b80604052505050565b6000620002ab6200020b565b9050620002b9828262000269565b919050565b600067ffffffffffffffff821115620002dc57620002db6200023a565b5b620002e78262000229565b9050602081019050919050565b60005b8381101562000314578082015181840152602081019050620002f7565b8381111562000324576000848401525b50505050565b6000620003416200033b84620002be565b6200029f565b90508281526020810184848401111562000360576200035f62000224565b5b6200036d848285620002f4565b509392505050565b600082601f8301126200038d576200038c6200021f565b5b81516200039f8482602086016200032a565b91505092915050565b600060208284031215620003c157620003c062000215565b5b600082015167ffffffffffffffff811115620003e257620003e16200021a565b5b620003f08482850162000375565b91505092915050565b7f4e487b7100000000000000000000000000000000000000000000000000000000600052602260045260246000fd5b600060028204905060018216806200044157607f821691505b60208210811415620004585762000457620003f9565b5b50919050565b612ed3806200046e6000396000f3fe608060405234801561001057600080fd5b50600436106100ce5760003560e01c80638da5cb5b1161008c578063bb4351e811610066578063bb4351e81461020f578063e985e9c51461022b578063f242432a1461025b578063f2fde38b14610277576100ce565b80638da5cb5b146101b9578063a0712d68146101d7578063a22cb465146101f3576100ce565b8062fdd58e146100d357806301ffc9a7146101035780630e89341c146101335780632eb2c2d6146101635780634e1273f41461017f578063715018a6146101af575b600080fd5b6100ed60048036038101906100e89190611ada565b610293565b6040516100fa9190611b29565b60405180910390f35b61011d60048036038101906101189190611b9c565b61035c565b60405161012a9190611be4565b60405180910390f35b61014d60048036038101906101489190611bff565b61043e565b60405161015a9190611cc5565b60405180910390f35b61017d60048036038101906101789190611ee4565b6104d2565b005b61019960048036038101906101949190612076565b610573565b6040516101a691906121ac565b60405180910390f35b6101b761068c565b005b6101c16106a0565b6040516101ce91906121dd565b60405180910390f35b6101f160048036038101906101ec9190611bff565b6106ca565b005b61020d60048036038101906102089190612224565b610711565b005b61022960048036038101906102249190612264565b610727565b005b6102456004803603810190610240919061230b565b61073f565b6040516102529190611be4565b60405180910390f35b6102756004803603810190610270919061234b565b6107d3565b005b610291600480360381019061028c91906123e2565b610874565b005b60008073ffffffffffffffffffffffffffffffffffffffff168373ffffffffffffffffffffffffffffffffffffffff161415610304576040517f08c379a00000000000000000000000000000000000000000000000000000000081526004016102fb90612481565b60405180910390fd5b60008083815260200190815260200160002060008473ffffffffffffffffffffffffffffffffffffffff1673ffffffffffffffffffffffffffffffffffffffff16815260200190815260200160002054905092915050565b60007fd9b67a26000000000000000000000000000000000000000000000000000000007bffffffffffffffffffffffffffffffffffffffffffffffffffffffff1916827bffffffffffffffffffffffffffffffffffffffffffffffffffffffff1916148061042757507f0e89341c000000000000000000000000000000000000000000000000000000007bffffffffffffffffffffffffffffffffffffffffffffffffffffffff1916827bffffffffffffffffffffffffffffffffffffffffffffffffffffffff1916145b806104375750610436826108f8565b5b9050919050565b60606002805461044d906124d0565b80601f0160208091040260200160405190810160405280929190818152602001828054610479906124d0565b80156104c65780601f1061049b576101008083540402835291602001916104c6565b820191906000526020600020905b8154815290600101906020018083116104a957829003601f168201915b50505050509050919050565b6104da610962565b73ffffffffffffffffffffffffffffffffffffffff168573ffffffffffffffffffffffffffffffffffffffff161480610520575061051f8561051a610962565b61073f565b5b61055f576040517f08c379a000000000000000000000000000000000000000000000000000000000815260040161055690612574565b60405180910390fd5b61056c858585858561096a565b5050505050565b606081518351146105b9576040517f08c379a00000000000000000000000000000000000000000000000000000000081526004016105b090612606565b60405180910390fd5b6000835167ffffffffffffffff8111156105d6576105d5611cec565b5b6040519080825280602002602001820160405280156106045781602001602082028036833780820191505090505b50905060005b84518110156106815761065185828151811061062957610628612626565b5b602002602001015185838151811061064457610643612626565b5b6020026020010151610293565b82828151811061066457610663612626565b5b6020026020010181815250508061067a90612684565b905061060a565b508091505092915050565b610694610c8c565b61069e6000610d0a565b565b6000600360009054906101000a900473ffffffffffffffffffffffffffffffffffffffff16905090565b6106d2610c8c565b600460008154809291906106e590612684565b919050555061070e6106f5610962565b6004548360405180602001604052806000815250610dd0565b50565b61072361071c610962565b8383610f81565b5050565b61073a610732610962565b8484846110ee565b505050565b6000600160008473ffffffffffffffffffffffffffffffffffffffff1673ffffffffffffffffffffffffffffffffffffffff16815260200190815260200160002060008373ffffffffffffffffffffffffffffffffffffffff1673ffffffffffffffffffffffffffffffffffffffff16815260200190815260200160002060009054906101000a900460ff16905092915050565b6107db610962565b73ffffffffffffffffffffffffffffffffffffffff168573ffffffffffffffffffffffffffffffffffffffff16148061082157506108208561081b610962565b61073f565b5b610860576040517f08c379a000000000000000000000000000000000000000000000000000000000815260040161085790612574565b60405180910390fd5b61086d858585858561131b565b5050505050565b61087c610c8c565b600073ffffffffffffffffffffffffffffffffffffffff168173ffffffffffffffffffffffffffffffffffffffff1614156108ec576040517f08c379a00000000000000000000000000000000000000000000000000000000081526004016108e39061273f565b60405180910390fd5b6108f581610d0a565b50565b60007f01ffc9a7000000000000000000000000000000000000000000000000000000007bffffffffffffffffffffffffffffffffffffffffffffffffffffffff1916827bffffffffffffffffffffffffffffffffffffffffffffffffffffffff1916149050919050565b600033905090565b81518351146109ae576040517f08c379a00000000000000000000000000000000000000000000000000000000081526004016109a5906127d1565b60405180910390fd5b600073ffffffffffffffffffffffffffffffffffffffff168473ffffffffffffffffffffffffffffffffffffffff161415610a1e576040517f08c379a0000000000000000000000000000000000000000000000000000000008152600401610a1590612863565b60405180910390fd5b6000610a28610962565b9050610a388187878787876115b7565b60005b8451811015610be9576000858281518110610a5957610a58612626565b5b602002602001015190506000858381518110610a7857610a77612626565b5b60200260200101519050600080600084815260200190815260200160002060008b73ffffffffffffffffffffffffffffffffffffffff1673ffffffffffffffffffffffffffffffffffffffff16815260200190815260200160002054905081811015610b19576040517f08c379a0000000000000000000000000000000000000000000000000000000008152600401610b10906128f5565b60405180910390fd5b81810360008085815260200190815260200160002060008c73ffffffffffffffffffffffffffffffffffffffff1673ffffffffffffffffffffffffffffffffffffffff168152602001908152602001600020819055508160008085815260200190815260200160002060008b73ffffffffffffffffffffffffffffffffffffffff1673ffffffffffffffffffffffffffffffffffffffff1681526020019081526020016000206000828254610bce9190612915565b9250508190555050505080610be290612684565b9050610a3b565b508473ffffffffffffffffffffffffffffffffffffffff168673ffffffffffffffffffffffffffffffffffffffff168273ffffffffffffffffffffffffffffffffffffffff167f4a39dc06d4c0dbc64b70af90fd698a233a518aa5d07e595d983b8c0526c8f7fb8787604051610c6092919061296b565b60405180910390a4610c768187878787876115bf565b610c848187878787876115c7565b505050505050565b610c94610962565b73ffffffffffffffffffffffffffffffffffffffff16610cb26106a0565b73ffffffffffffffffffffffffffffffffffffffff1614610d08576040517f08c379a0000000000000000000000000000000000000000000000000000000008152600401610cff906129ee565b60405180910390fd5b565b6000600360009054906101000a900473ffffffffffffffffffffffffffffffffffffffff16905081600360006101000a81548173ffffffffffffffffffffffffffffffffffffffff021916908373ffffffffffffffffffffffffffffffffffffffff1602179055508173ffffffffffffffffffffffffffffffffffffffff168173ffffffffffffffffffffffffffffffffffffffff167f8be0079c531659141344cd1fd0a4f28419497f9722a3daafe3b4186f6b6457e060405160405180910390a35050565b600073ffffffffffffffffffffffffffffffffffffffff168473ffffffffffffffffffffffffffffffffffffffff161415610e40576040517f08c379a0000000000000000000000000000000000000000000000000000000008152600401610e3790612a80565b60405180910390fd5b6000610e4a610962565b90506000610e57856117ae565b90506000610e64856117ae565b9050610e75836000898585896115b7565b8460008088815260200190815260200160002060008973ffffffffffffffffffffffffffffffffffffffff1673ffffffffffffffffffffffffffffffffffffffff1681526020019081526020016000206000828254610ed49190612915565b925050819055508673ffffffffffffffffffffffffffffffffffffffff16600073ffffffffffffffffffffffffffffffffffffffff168473ffffffffffffffffffffffffffffffffffffffff167fc3d58168c5ae7397731d063d5bbf3d657854427343f4c083240f7aacaa2d0f628989604051610f52929190612aa0565b60405180910390a4610f69836000898585896115bf565b610f7883600089898989611828565b50505050505050565b8173ffffffffffffffffffffffffffffffffffffffff168373ffffffffffffffffffffffffffffffffffffffff161415610ff0576040517f08c379a0000000000000000000000000000000000000000000000000000000008152600401610fe790612b3b565b60405180910390fd5b80600160008573ffffffffffffffffffffffffffffffffffffffff1673ffffffffffffffffffffffffffffffffffffffff16815260200190815260200160002060008473ffffffffffffffffffffffffffffffffffffffff1673ffffffffffffffffffffffffffffffffffffffff16815260200190815260200160002060006101000a81548160ff0219169083151502179055508173ffffffffffffffffffffffffffffffffffffffff168373ffffffffffffffffffffffffffffffffffffffff167f17307eab39ab6107e8899845ad3d59bd9653f200f220920489ca2b5937696c31836040516110e19190611be4565b60405180910390a3505050565b600073ffffffffffffffffffffffffffffffffffffffff168473ffffffffffffffffffffffffffffffffffffffff16141561115e576040517f08c379a000000000000000000000000000000000000000000000000000000000815260040161115590612a80565b60405180910390fd5b81518351146111a2576040517f08c379a0000000000000000000000000000000000000000000000000000000008152600401611199906127d1565b60405180910390fd5b60006111ac610962565b90506111bd816000878787876115b7565b60005b8451811015611276578381815181106111dc576111db612626565b5b60200260200101516000808784815181106111fa576111f9612626565b5b6020026020010151815260200190815260200160002060008873ffffffffffffffffffffffffffffffffffffffff1673ffffffffffffffffffffffffffffffffffffffff168152602001908152602001600020600082825461125c9190612915565b92505081905550808061126e90612684565b9150506111c0565b508473ffffffffffffffffffffffffffffffffffffffff16600073ffffffffffffffffffffffffffffffffffffffff168273ffffffffffffffffffffffffffffffffffffffff167f4a39dc06d4c0dbc64b70af90fd698a233a518aa5d07e595d983b8c0526c8f7fb87876040516112ee92919061296b565b60405180910390a4611305816000878787876115bf565b611314816000878787876115c7565b5050505050565b600073ffffffffffffffffffffffffffffffffffffffff168473ffffffffffffffffffffffffffffffffffffffff16141561138b576040517f08c379a000000000000000000000000000000000000000000000000000000000815260040161138290612863565b60405180910390fd5b6000611395610962565b905060006113a2856117ae565b905060006113af856117ae565b90506113bf8389898585896115b7565b600080600088815260200190815260200160002060008a73ffffffffffffffffffffffffffffffffffffffff1673ffffffffffffffffffffffffffffffffffffffff16815260200190815260200160002054905085811015611456576040517f08c379a000000000000000000000000000000000000000000000000000000000815260040161144d906128f5565b60405180910390fd5b85810360008089815260200190815260200160002060008b73ffffffffffffffffffffffffffffffffffffffff1673ffffffffffffffffffffffffffffffffffffffff168152602001908152602001600020819055508560008089815260200190815260200160002060008a73ffffffffffffffffffffffffffffffffffffffff1673ffffffffffffffffffffffffffffffffffffffff168152602001908152602001600020600082825461150b9190612915565b925050819055508773ffffffffffffffffffffffffffffffffffffffff168973ffffffffffffffffffffffffffffffffffffffff168573ffffffffffffffffffffffffffffffffffffffff167fc3d58168c5ae7397731d063d5bbf3d657854427343f4c083240f7aacaa2d0f628a8a604051611588929190612aa0565b60405180910390a461159e848a8a86868a6115bf565b6115ac848a8a8a8a8a611828565b505050505050505050565b505050505050565b505050505050565b6115e68473ffffffffffffffffffffffffffffffffffffffff16611a0f565b156117a6578373ffffffffffffffffffffffffffffffffffffffff1663bc197c8187878686866040518663ffffffff1660e01b815260040161162c959493929190612bb0565b602060405180830381600087803b15801561164657600080fd5b505af192505050801561167757506040513d601f19601f820116820180604052508101906116749190612c2d565b60015b61171d57611683612c67565b806308c379a014156116e05750611698612c89565b806116a357506116e2565b806040517f08c379a00000000000000000000000000000000000000000000000000000000081526004016116d79190611cc5565b60405180910390fd5b505b6040517f08c379a000000000000000000000000000000000000000000000000000000000815260040161171490612d91565b60405180910390fd5b63bc197c8160e01b7bffffffffffffffffffffffffffffffffffffffffffffffffffffffff1916817bffffffffffffffffffffffffffffffffffffffffffffffffffffffff1916146117a4576040517f08c379a000000000000000000000000000000000000000000000000000000000815260040161179b90612e23565b60405180910390fd5b505b505050505050565b60606000600167ffffffffffffffff8111156117cd576117cc611cec565b5b6040519080825280602002602001820160405280156117fb5781602001602082028036833780820191505090505b509050828160008151811061181357611812612626565b5b60200260200101818152505080915050919050565b6118478473ffffffffffffffffffffffffffffffffffffffff16611a0f565b15611a07578373ffffffffffffffffffffffffffffffffffffffff1663f23a6e6187878686866040518663ffffffff1660e01b815260040161188d959493929190612e43565b602060405180830381600087803b1580156118a757600080fd5b505af19250505080156118d857506040513d601f19601f820116820180604052508101906118d59190612c2d565b60015b61197e576118e4612c67565b806308c379a0141561194157506118f9612c89565b806119045750611943565b806040517f08c379a00000000000000000000000000000000000000000000000000000000081526004016119389190611cc5565b60405180910390fd5b505b6040517f08c379a000000000000000000000000000000000000000000000000000000000815260040161197590612d91565b60405180910390fd5b63f23a6e6160e01b7bffffffffffffffffffffffffffffffffffffffffffffffffffffffff1916817bffffffffffffffffffffffffffffffffffffffffffffffffffffffff191614611a05576040517f08c379a00000000000000000000000000000000000000000000000000000000081526004016119fc90612e23565b60405180910390fd5b505b505050505050565b6000808273ffffffffffffffffffffffffffffffffffffffff163b119050919050565b6000604051905090565b600080fd5b600080fd5b600073ffffffffffffffffffffffffffffffffffffffff82169050919050565b6000611a7182611a46565b9050919050565b611a8181611a66565b8114611a8c57600080fd5b50565b600081359050611a9e81611a78565b92915050565b6000819050919050565b611ab781611aa4565b8114611ac257600080fd5b50565b600081359050611ad481611aae565b92915050565b60008060408385031215611af157611af0611a3c565b5b6000611aff85828601611a8f565b9250506020611b1085828601611ac5565b9150509250929050565b611b2381611aa4565b82525050565b6000602082019050611b3e6000830184611b1a565b92915050565b60007fffffffff0000000000000000000000000000000000000000000000000000000082169050919050565b611b7981611b44565b8114611b8457600080fd5b50565b600081359050611b9681611b70565b92915050565b600060208284031215611bb257611bb1611a3c565b5b6000611bc084828501611b87565b91505092915050565b60008115159050919050565b611bde81611bc9565b82525050565b6000602082019050611bf96000830184611bd5565b92915050565b600060208284031215611c1557611c14611a3c565b5b6000611c2384828501611ac5565b91505092915050565b600081519050919050565b600082825260208201905092915050565b60005b83811015611c66578082015181840152602081019050611c4b565b83811115611c75576000848401525b50505050565b6000601f19601f8301169050919050565b6000611c9782611c2c565b611ca18185611c37565b9350611cb1818560208601611c48565b611cba81611c7b565b840191505092915050565b60006020820190508181036000830152611cdf8184611c8c565b905092915050565b600080fd5b7f4e487b7100000000000000000000000000000000000000000000000000000000600052604160045260246000fd5b611d2482611c7b565b810181811067ffffffffffffffff82111715611d4357611d42611cec565b5b80604052505050565b6000611d56611a32565b9050611d628282611d1b565b919050565b600067ffffffffffffffff821115611d8257611d81611cec565b5b602082029050602081019050919050565b600080fd5b6000611dab611da684611d67565b611d4c565b90508083825260208201905060208402830185811115611dce57611dcd611d93565b5b835b81811015611df75780611de38882611ac5565b845260208401935050602081019050611dd0565b5050509392505050565b600082601f830112611e1657611e15611ce7565b5b8135611e26848260208601611d98565b91505092915050565b600080fd5b600067ffffffffffffffff821115611e4f57611e4e611cec565b5b611e5882611c7b565b9050602081019050919050565b82818337600083830152505050565b6000611e87611e8284611e34565b611d4c565b905082815260208101848484011115611ea357611ea2611e2f565b5b611eae848285611e65565b509392505050565b600082601f830112611ecb57611eca611ce7565b5b8135611edb848260208601611e74565b91505092915050565b600080600080600060a08688031215611f0057611eff611a3c565b5b6000611f0e88828901611a8f565b9550506020611f1f88828901611a8f565b945050604086013567ffffffffffffffff811115611f4057611f3f611a41565b5b611f4c88828901611e01565b935050606086013567ffffffffffffffff811115611f6d57611f6c611a41565b5b611f7988828901611e01565b925050608086013567ffffffffffffffff811115611f9a57611f99611a41565b5b611fa688828901611eb6565b9150509295509295909350565b600067ffffffffffffffff821115611fce57611fcd611cec565b5b602082029050602081019050919050565b6000611ff2611fed84611fb3565b611d4c565b9050808382526020820190506020840283018581111561201557612014611d93565b5b835b8181101561203e578061202a8882611a8f565b845260208401935050602081019050612017565b5050509392505050565b600082601f83011261205d5761205c611ce7565b5b813561206d848260208601611fdf565b91505092915050565b6000806040838503121561208d5761208c611a3c565b5b600083013567ffffffffffffffff8111156120ab576120aa611a41565b5b6120b785828601612048565b925050602083013567ffffffffffffffff8111156120d8576120d7611a41565b5b6120e485828601611e01565b9150509250929050565b600081519050919050565b600082825260208201905092915050565b6000819050602082019050919050565b61212381611aa4565b82525050565b6000612135838361211a565b60208301905092915050565b6000602082019050919050565b6000612159826120ee565b61216381856120f9565b935061216e8361210a565b8060005b8381101561219f5781516121868882612129565b975061219183612141565b925050600181019050612172565b5085935050505092915050565b600060208201905081810360008301526121c6818461214e565b905092915050565b6121d781611a66565b82525050565b60006020820190506121f260008301846121ce565b92915050565b61220181611bc9565b811461220c57600080fd5b50565b60008135905061221e816121f8565b92915050565b6000806040838503121561223b5761223a611a3c565b5b600061224985828601611a8f565b925050602061225a8582860161220f565b9150509250929050565b60008060006060848603121561227d5761227c611a3c565b5b600084013567ffffffffffffffff81111561229b5761229a611a41565b5b6122a786828701611e01565b935050602084013567ffffffffffffffff8111156122c8576122c7611a41565b5b6122d486828701611e01565b925050604084013567ffffffffffffffff8111156122f5576122f4611a41565b5b61230186828701611eb6565b9150509250925092565b6000806040838503121561232257612321611a3c565b5b600061233085828601611a8f565b925050602061234185828601611a8f565b9150509250929050565b600080600080600060a0868803121561236757612366611a3c565b5b600061237588828901611a8f565b955050602061238688828901611a8f565b945050604061239788828901611ac5565b93505060606123a888828901611ac5565b925050608086013567ffffffffffffffff8111156123c9576123c8611a41565b5b6123d588828901611eb6565b9150509295509295909350565b6000602082840312156123f8576123f7611a3c565b5b600061240684828501611a8f565b91505092915050565b7f455243313135353a2061646472657373207a65726f206973206e6f742061207660008201527f616c6964206f776e657200000000000000000000000000000000000000000000602082015250565b600061246b602a83611c37565b91506124768261240f565b604082019050919050565b6000602082019050818103600083015261249a8161245e565b9050919050565b7f4e487b7100000000000000000000000000000000000000000000000000000000600052602260045260246000fd5b600060028204905060018216806124e857607f821691505b602082108114156124fc576124fb6124a1565b5b50919050565b7f455243313135353a2063616c6c6572206973206e6f7420746f6b656e206f776e60008201527f6572206e6f7220617070726f7665640000000000000000000000000000000000602082015250565b600061255e602f83611c37565b915061256982612502565b604082019050919050565b6000602082019050818103600083015261258d81612551565b9050919050565b7f455243313135353a206163636f756e747320616e6420696473206c656e67746860008201527f206d69736d617463680000000000000000000000000000000000000000000000602082015250565b60006125f0602983611c37565b91506125fb82612594565b604082019050919050565b6000602082019050818103600083015261261f816125e3565b9050919050565b7f4e487b7100000000000000000000000000000000000000000000000000000000600052603260045260246000fd5b7f4e487b7100000000000000000000000000000000000000000000000000000000600052601160045260246000fd5b600061268f82611aa4565b91507fffffffffffffffffffffffffffffffffffffffffffffffffffffffffffffffff8214156126c2576126c1612655565b5b600182019050919050565b7f4f776e61626c653a206e6577206f776e657220697320746865207a65726f206160008201527f6464726573730000000000000000000000000000000000000000000000000000602082015250565b6000612729602683611c37565b9150612734826126cd565b604082019050919050565b600060208201905081810360008301526127588161271c565b9050919050565b7f455243313135353a2069647320616e6420616d6f756e7473206c656e6774682060008201527f6d69736d61746368000000000000000000000000000000000000000000000000602082015250565b60006127bb602883611c37565b91506127c68261275f565b604082019050919050565b600060208201905081810360008301526127ea816127ae565b9050919050565b7f455243313135353a207472616e7366657220746f20746865207a65726f20616460008201527f6472657373000000000000000000000000000000000000000000000000000000602082015250565b600061284d602583611c37565b9150612858826127f1565b604082019050919050565b6000602082019050818103600083015261287c81612840565b9050919050565b7f455243313135353a20696e73756666696369656e742062616c616e636520666f60008201527f72207472616e7366657200000000000000000000000000000000000000000000602082015250565b60006128df602a83611c37565b91506128ea82612883565b604082019050919050565b6000602082019050818103600083015261290e816128d2565b9050919050565b600061292082611aa4565b915061292b83611aa4565b9250827fffffffffffffffffffffffffffffffffffffffffffffffffffffffffffffffff038211156129605761295f612655565b5b828201905092915050565b60006040820190508181036000830152612985818561214e565b90508181036020830152612999818461214e565b90509392505050565b7f4f776e61626c653a2063616c6c6572206973206e6f7420746865206f776e6572600082015250565b60006129d8602083611c37565b91506129e3826129a2565b602082019050919050565b60006020820190508181036000830152612a07816129cb565b9050919050565b7f455243313135353a206d696e7420746f20746865207a65726f2061646472657360008201527f7300000000000000000000000000000000000000000000000000000000000000602082015250565b6000612a6a602183611c37565b9150612a7582612a0e565b604082019050919050565b60006020820190508181036000830152612a9981612a5d565b9050919050565b6000604082019050612ab56000830185611b1a565b612ac26020830184611b1a565b9392505050565b7f455243313135353a2073657474696e6720617070726f76616c2073746174757360008201527f20666f722073656c660000000000000000000000000000000000000000000000602082015250565b6000612b25602983611c37565b9150612b3082612ac9565b604082019050919050565b60006020820190508181036000830152612b5481612b18565b9050919050565b600081519050919050565b600082825260208201905092915050565b6000612b8282612b5b565b612b8c8185612b66565b9350612b9c818560208601611c48565b612ba581611c7b565b840191505092915050565b600060a082019050612bc560008301886121ce565b612bd260208301876121ce565b8181036040830152612be4818661214e565b90508181036060830152612bf8818561214e565b90508181036080830152612c0c8184612b77565b90509695505050505050565b600081519050612c2781611b70565b92915050565b600060208284031215612c4357612c42611a3c565b5b6000612c5184828501612c18565b91505092915050565b60008160e01c9050919050565b600060033d1115612c865760046000803e612c83600051612c5a565b90505b90565b600060443d1015612c9957612d1c565b612ca1611a32565b60043d036004823e80513d602482011167ffffffffffffffff82111715612cc9575050612d1c565b808201805167ffffffffffffffff811115612ce75750505050612d1c565b80602083010160043d038501811115612d04575050505050612d1c565b612d1382602001850186611d1b565b82955050505050505b90565b7f455243313135353a207472616e7366657220746f206e6f6e204552433131353560008201527f526563656976657220696d706c656d656e746572000000000000000000000000602082015250565b6000612d7b603483611c37565b9150612d8682612d1f565b604082019050919050565b60006020820190508181036000830152612daa81612d6e565b9050919050565b7f455243313135353a204552433131353552656365697665722072656a6563746560008201527f6420746f6b656e73000000000000000000000000000000000000000000000000602082015250565b6000612e0d602883611c37565b9150612e1882612db1565b604082019050919050565b60006020820190508181036000830152612e3c81612e00565b9050919050565b600060a082019050612e5860008301886121ce565b612e6560208301876121ce565b612e726040830186611b1a565b612e7f6060830185611b1a565b8181036080830152612e918184612b77565b9050969550505050505056fea2646970667358221220ed4089276694443169ea32545dcd27db1a7f8fc411dcc50cba844a8cedf25e5664736f6c63430008090033",
  "linkReferences": {},
  "deployedLinkReferences": {}
}